{
  "phase-a-empty-standard": {
    "network": "Shanghai",
    "sealEngine": "NoProof",
    "genesisBlockHeader": {
      "hash": "0xbd0bfa5377fdd562a7700ec0eab46dcd83a4ba67a3448fc990876c4ff23ec4f6",
      "parentHash": "0x0000000000000000000000000000000000000000000000000000000000000000",
      "coinbase": "0x0000000000000000000000000000000000000001",
      "stateRoot": "0x56e81f171bcc55a6ff8345e692c0f86e5b48e01b996cadc001622fb5e363b421",
      "transactionsTrie": "0x56e81f171bcc55a6ff8345e692c0f86e5b48e01b996cadc001622fb5e363b421",
      "receiptTrie": "0x56e81f171bcc55a6ff8345e692c0f86e5b48e01b996cadc001622fb5e363b421",
      "uncleHash": "0x1dcc4de8dec75d7aab85b567b6ccd41ad312451b948a7413f0a142fd40d49347",
      "bloom": "0x00000000000000000000000000000000000000000000000000000000000000000000000000000000000000000000000000000000000000000000000000000000000000000000000000000000000000000000000000000000000000000000000000000000000000000000000000000000000000000000000000000000000000000000000000000000000000000000000000000000000000000000000000000000000000000000000000000000000000000000000000000000000000000000000000000000000000000000000000000000000000000000000000000000000000000000000000000000000000000000000000000000000000000000",
      "difficulty": "0x0",
      "number": "0x29",
      "gasLimit": "0xc350",
      "gasUsed": "0x61a8",
      "timestamp": "0x62",
      "extraData": "0x",
      "mixHash": "0x0000000000000000000000000000000000000000000000000000000000000000",
      "nonce": "0x0000000000000000",
      "baseFeePerGas": "0x64",
      "withdrawalsRoot": "0x56e81f171bcc55a6ff8345e692c0f86e5b48e01b996cadc001622fb5e363b421"
    },
    "pre": {},
    "postState": {},
    "lastblockhash": "0x9937880e9ca0115d6d631f925a1b1559d539eff54dde8813c393baec0b82e77b",
    "blocks": [
      {
        "rlp": "0xf90217f90211a0bd0bfa5377fdd562a7700ec0eab46dcd83a4ba67a3448fc990876c4ff23ec4f6a01dcc4de8dec75d7aab85b567b6ccd41ad312451b948a7413f0a142fd40d49347940000000000000000000000000000000000000001a056e81f171bcc55a6ff8345e692c0f86e5b48e01b996cadc001622fb5e363b421a056e81f171bcc55a6ff8345e692c0f86e5b48e01b996cadc001622fb5e363b421a056e81f171bcc55a6ff8345e692c0f86e5b48e01b996cadc001622fb5e363b421b9010000000000000000000000000000000000000000000000000000000000000000000000000000000000000000000000000000000000000000000000000000000000000000000000000000000000000000000000000000000000000000000000000000000000000000000000000000000000000000000000000000000000000000000000000000000000000000000000000000000000000000000000000000000000000000000000000000000000000000000000000000000000000000000000000000000000000000000000000000000000000000000000000000000000000000000000000000000000000000000000000000000000000000000000000000000000802a82c350806380a0000000000000000000000000000000000000000000000000000000000000000088000000000000000064a056e81f171bcc55a6ff8345e692c0f86e5b48e01b996cadc001622fb5e363b421c0c0c0",
        "blockHeader": {
          "hash": "0x9937880e9ca0115d6d631f925a1b1559d539eff54dde8813c393baec0b82e77b"
        },
        "uncleHeaders": []
      }
    ]
  }
}
