{
  "phase-a-transfer-engine": {
    "network": "Shanghai",
    "lastblockhash": "0x7630ceb18479a472c2ba9b957792a7eb352cd0552d2390cff72538a86eb33f12",
    "config": {
      "chainid": "0x1"
    },
    "genesisBlockHeader": {
      "coinbase": "0x0000000000000000000000000000000000000001",
      "number": "0x29",
      "gasLimit": "0xc350",
      "gasUsed": "0x61a8",
      "timestamp": "0x62",
      "baseFeePerGas": "0x64"
    },
    "pre": {
      "0x9d8a62f656a8d1615c1294fd71e9cfb3e4855a4f": {
        "nonce": "0x9",
        "balance": "0x1bc16d674ec80000",
        "code": "0x",
        "storage": {}
      },
      "0x0000000000000000000000000000000000001002": {
        "nonce": "0x0",
        "balance": "0x5",
        "code": "0x6001600055",
        "storage": {
          "0x0000000000000000000000000000000000000000000000000000000000000000": "0x2a"
        }
      }
    },
    "postState": {
      "0x9d8a62f656a8d1615c1294fd71e9cfb3e4855a4f": {
        "nonce": "0xa",
        "balance": "0xddf38b6c895c000",
        "code": "0x",
        "storage": {}
      },
      "0x3535353535353535353535353535353535353535": {
        "nonce": "0x0",
        "balance": "0xde0b6b3a7640000",
        "code": "0x",
        "storage": {}
      },
      "0x0000000000000000000000000000000000000002": {
        "nonce": "0x0",
        "balance": "0x3b9aca00",
        "code": "0x",
        "storage": {}
      },
      "0x0000000000000000000000000000000000001002": {
        "nonce": "0x0",
        "balance": "0x5",
        "code": "0x6001600055",
        "storage": {
          "0x0000000000000000000000000000000000000000000000000000000000000000": "0x2a"
        }
      }
    },
    "engineNewPayloads": [
      {
        "newPayloadVersion": "2",
        "forkchoiceUpdatedVersion": "2",
        "params": [
          {
            "parentHash": "0x7e441176b61829dc32d3bcd5776e989005a0519873f1d14fe0e66df826c9e90f",
            "feeRecipient": "0x0000000000000000000000000000000000000001",
            "stateRoot": "0x00aa4363e90cd526dc1801fcaf793fb4f295a05749923ac70767b8af5df6d35b",
            "receiptsRoot": "0x056b23fbba480696b65fe5a59b8f2148a1299103c4f57df839233af2cf4ca2d2",
            "logsBloom": "0x00000000000000000000000000000000000000000000000000000000000000000000000000000000000000000000000000000000000000000000000000000000000000000000000000000000000000000000000000000000000000000000000000000000000000000000000000000000000000000000000000000000000000000000000000000000000000000000000000000000000000000000000000000000000000000000000000000000000000000000000000000000000000000000000000000000000000000000000000000000000000000000000000000000000000000000000000000000000000000000000000000000000000000000",
            "blockNumber": "0x2a",
            "gasLimit": "0xc350",
            "gasUsed": "0x5208",
            "timestamp": "0x63",
            "extraData": "0x",
            "prevRandao": "0x0000000000000000000000000000000000000000000000000000000000000000",
            "baseFeePerGas": "0x64",
            "blockHash": "0x7630ceb18479a472c2ba9b957792a7eb352cd0552d2390cff72538a86eb33f12",
            "transactions": [
              "0xf86c098504a817c800825208943535353535353535353535353535353535353535880de0b6b3a76400008025a028ef61340bd939bc2195fe537567866003e1a15d3c71ff63e1590620aa636276a067cbe9d8997f761aecb703304b3800ccf555c9f3dc64214b297fb1966a3b6d83"
            ],
            "withdrawals": [
              {
                "index": "0x0",
                "validatorIndex": "0x1",
                "address": "0x0000000000000000000000000000000000000002",
                "amount": "0x1"
              }
            ]
          }
        ]
      }
    ],
    "_info": {
      "comment": "Upstream-shaped blockchain_tests_engine sample for non-empty Shanghai engineNewPayloadV2 replay."
    }
  }
}
