{
  "format": "ethereum-lisp/engine-newpayload-fixture-v1",
  "source": "Handwritten Shanghai engine_newPayloadV2 smoke case shaped for execution-spec-tests-style ingestion.",
  "executionSpecTests": {
    "release": "v5.4.0",
    "tagTarget": "88e9fb8",
    "archive": "fixtures_stable.tar.gz",
    "status": "seed Phase A engine_newPayloadV2 smoke fixture shaped for pinned fixture ingestion; extend with transcribed pinned blockchain cases"
  },
  "referenceClients": {
    "geth": "8a0223e",
    "nethermind": "1c72a72",
    "reth": null
  },
  "cases": [
    {
      "name": "shanghai-one-transfer-with-withdrawal",
      "network": "Shanghai",
      "chainId": "0x1",
      "config": {
        "berlinBlock": "0x0",
        "londonBlock": "0x0",
        "shanghaiTime": "0x0"
      },
      "parent": {
        "number": "0x29",
        "gasLimit": "0xc350",
        "gasUsed": "0x61a8",
        "timestamp": "0x62",
        "baseFeePerGas": "0x64",
        "feeRecipient": "0x0000000000000000000000000000000000000001",
        "accounts": [
          {
            "address": "0x9d8a62f656a8d1615c1294fd71e9cfb3e4855a4f",
            "nonce": "0x9",
            "balance": "0x1bc16d674ec80000"
          },
          {
            "address": "0x0000000000000000000000000000000000001002",
            "nonce": "0x0",
            "balance": "0x5",
            "code": "0x6001600055",
            "storage": {
              "0x0000000000000000000000000000000000000000000000000000000000000000": "0x2a"
            }
          }
        ]
      },
      "payload": {
        "number": "0x2a",
        "gasLimit": "0xc350",
        "timestamp": "0x63",
        "baseFeePerGas": "0x64",
        "transactions": [
          "0xf86c098504a817c800825208943535353535353535353535353535353535353535880de0b6b3a76400008025a028ef61340bd939bc2195fe537567866003e1a15d3c71ff63e1590620aa636276a067cbe9d8997f761aecb703304b3800ccf555c9f3dc64214b297fb1966a3b6d83"
        ],
        "withdrawals": [
          {
            "index": "0x0",
            "validatorIndex": "0x1",
            "address": "0x0000000000000000000000000000000000000002",
            "amount": "0x1"
          }
        ]
      },
      "expect": {
        "status": "VALID",
        "sender": "0x9d8a62f656a8d1615c1294fd71e9cfb3e4855a4f",
        "senderNonce": "0xa",
        "senderBalance": "0xddf38b6c895c000",
        "recipient": "0x3535353535353535353535353535353535353535",
        "recipientBalance": "0xde0b6b3a7640000",
        "withdrawalRecipient": "0x0000000000000000000000000000000000000002",
        "withdrawalBalance": "0x3b9aca00",
        "codeAddress": "0x0000000000000000000000000000000000001002",
        "code": "0x6001600055",
        "storageAddress": "0x0000000000000000000000000000000000001002",
        "storageKey": "0x0000000000000000000000000000000000000000000000000000000000000000",
        "storageValue": "0x000000000000000000000000000000000000000000000000000000000000002a",
        "receiptType": "0x0",
        "receiptStatus": "0x1"
      }
    },
    {
      "name": "shanghai-two-legacy-transfers-with-withdrawal",
      "network": "Shanghai",
      "chainId": "0x1",
      "config": {
        "berlinBlock": "0x0",
        "londonBlock": "0x0",
        "shanghaiTime": "0x0"
      },
      "parent": {
        "number": "0x29",
        "gasLimit": "0xea60",
        "gasUsed": "0x7530",
        "timestamp": "0x62",
        "baseFeePerGas": "0x64",
        "feeRecipient": "0x0000000000000000000000000000000000000001",
        "accounts": [
          {
            "address": "0x7e5f4552091a69125d5dfcb7b8c2659029395bdf",
            "nonce": "0x9",
            "balance": "0x8ac7230489e80000"
          },
          {
            "address": "0x0000000000000000000000000000000000001002",
            "nonce": "0x0",
            "balance": "0x5",
            "code": "0x6001600055",
            "storage": {
              "0x0000000000000000000000000000000000000000000000000000000000000000": "0x2a"
            }
          }
        ]
      },
      "payload": {
        "number": "0x2a",
        "gasLimit": "0xea60",
        "timestamp": "0x63",
        "baseFeePerGas": "0x64",
        "transactions": [
          "0xf86c098504a817c800825208943535353535353535353535353535353535353535880de0b6b3a76400008025a079be667ef9dcbbac55a06295ce870b07029bfcdb2dce28d959f2815b16f81798a054b40df8a873eb43773792d349de524f0fdca3df59467b16b4f26087750e64aa",
          "0xf86c0a8504a817c800825208944545454545454545454545454545454545454545881bc16d674ec800008025a079be667ef9dcbbac55a06295ce870b07029bfcdb2dce28d959f2815b16f81798a01505b5e83fb3fbd92d1ce372571e256938043eb429db4ba43960b26f377d4f42"
        ],
        "withdrawals": [
          {
            "index": "0x0",
            "validatorIndex": "0x1",
            "address": "0x0000000000000000000000000000000000000002",
            "amount": "0x1"
          }
        ]
      },
      "expect": {
        "status": "VALID",
        "sender": "0x7e5f4552091a69125d5dfcb7b8c2659029395bdf",
        "senderNonce": "0xb",
        "senderBalance": "0x612202efd61f8000",
        "recipient": "0x3535353535353535353535353535353535353535",
        "recipientBalance": "0xde0b6b3a7640000",
        "recipients": [
          "0x3535353535353535353535353535353535353535",
          "0x4545454545454545454545454545454545454545"
        ],
        "recipientBalances": [
          "0xde0b6b3a7640000",
          "0x1bc16d674ec80000"
        ],
        "withdrawalRecipient": "0x0000000000000000000000000000000000000002",
        "withdrawalBalance": "0x3b9aca00",
        "codeAddress": "0x0000000000000000000000000000000000001002",
        "code": "0x6001600055",
        "storageAddress": "0x0000000000000000000000000000000000001002",
        "storageKey": "0x0000000000000000000000000000000000000000000000000000000000000000",
        "storageValue": "0x000000000000000000000000000000000000000000000000000000000000002a",
        "receiptType": "0x0",
        "receiptStatus": "0x1",
        "receiptTypes": [
          "0x0",
          "0x0"
        ],
        "receiptStatuses": [
          "0x1",
          "0x1"
        ],
        "cumulativeGasUsed": [
          "0x5208",
          "0xa410"
        ]
      }
    },
    {
      "name": "shanghai-access-list-transfer-with-withdrawal",
      "network": "Shanghai",
      "chainId": "0x1",
      "config": {
        "berlinBlock": "0x0",
        "londonBlock": "0x0",
        "shanghaiTime": "0x0"
      },
      "parent": {
        "number": "0x29",
        "gasLimit": "0xc350",
        "gasUsed": "0x61a8",
        "timestamp": "0x62",
        "baseFeePerGas": "0x1",
        "feeRecipient": "0x0000000000000000000000000000000000000001",
        "accounts": [
          {
            "address": "0x7e5f4552091a69125d5dfcb7b8c2659029395bdf",
            "nonce": "0x4",
            "balance": "0x3b9aca00"
          },
          {
            "address": "0x0000000000000000000000000000000000001002",
            "nonce": "0x0",
            "balance": "0x5",
            "code": "0x6001600055",
            "storage": {
              "0x0000000000000000000000000000000000000000000000000000000000000000": "0x2a"
            }
          }
        ]
      },
      "payload": {
        "number": "0x2a",
        "gasLimit": "0xc350",
        "timestamp": "0x63",
        "baseFeePerGas": "0x1",
        "transactions": [
          "0x01f8bd01040182c35094b94f5374fce5edbc8e2a8697c15331677e6ebf0b0a80f85bf859940000000000000000000000000000000000000101f842a00000000000000000000000000000000000000000000000000000000000000001a0000000000000000000000000000000000000000000000000000000000000000280a079be667ef9dcbbac55a06295ce870b07029bfcdb2dce28d959f2815b16f81798a01ed995b55ae531ccce7f7355b76d169c08886a437e3932f6f0e79c9dcc297aed"
        ],
        "withdrawals": [
          {
            "index": "0x0",
            "validatorIndex": "0x1",
            "address": "0x0000000000000000000000000000000000000002",
            "amount": "0x1"
          }
        ]
      },
      "expect": {
        "status": "VALID",
        "sender": "0x7e5f4552091a69125d5dfcb7b8c2659029395bdf",
        "senderNonce": "0x5",
        "senderBalance": "0x3b9a5fb6",
        "recipient": "0xb94f5374fce5edbc8e2a8697c15331677e6ebf0b",
        "recipientBalance": "0xa",
        "withdrawalRecipient": "0x0000000000000000000000000000000000000002",
        "withdrawalBalance": "0x3b9aca00",
        "codeAddress": "0x0000000000000000000000000000000000001002",
        "code": "0x6001600055",
        "storageAddress": "0x0000000000000000000000000000000000001002",
        "storageKey": "0x0000000000000000000000000000000000000000000000000000000000000000",
        "storageValue": "0x000000000000000000000000000000000000000000000000000000000000002a",
        "receiptType": "0x1",
        "receiptStatus": "0x1"
      }
    },
    {
      "name": "shanghai-dynamic-fee-transfer-with-withdrawal",
      "network": "Shanghai",
      "chainId": "0x1",
      "config": {
        "berlinBlock": "0x0",
        "londonBlock": "0x0",
        "shanghaiTime": "0x0"
      },
      "parent": {
        "number": "0x29",
        "gasLimit": "0xc350",
        "gasUsed": "0x61a8",
        "timestamp": "0x62",
        "baseFeePerGas": "0x64",
        "feeRecipient": "0x0000000000000000000000000000000000000001",
        "accounts": [
          {
            "address": "0xd02d72e067e77158444ef2020ff2d325f929b363",
            "nonce": "0x1",
            "balance": "0x3b9aca00"
          },
          {
            "address": "0x0000000000000000000000000000000000001002",
            "nonce": "0x0",
            "balance": "0x5",
            "code": "0x6001600055",
            "storage": {
              "0x0000000000000000000000000000000000000000000000000000000000000000": "0x2a"
            }
          }
        ]
      },
      "payload": {
        "number": "0x2a",
        "gasLimit": "0xc350",
        "timestamp": "0x63",
        "baseFeePerGas": "0x64",
        "transactions": [
          "0x02f864010180820fa08284d09411111111111111111111111111111111111111118080c001a0b7dfab36232379bb3d1497a4f91c1966b1f932eae3ade107bf5d723b9cb474e0a06261c359a10f2132f126d250485b90cf20f30340801244a08ef6142ab33d1904"
        ],
        "withdrawals": [
          {
            "index": "0x0",
            "validatorIndex": "0x1",
            "address": "0x0000000000000000000000000000000000000002",
            "amount": "0x1"
          }
        ]
      },
      "expect": {
        "status": "VALID",
        "sender": "0xd02d72e067e77158444ef2020ff2d325f929b363",
        "senderNonce": "0x2",
        "senderBalance": "0x3b7abee0",
        "recipient": "0x1111111111111111111111111111111111111111",
        "recipientBalance": "0x0",
        "withdrawalRecipient": "0x0000000000000000000000000000000000000002",
        "withdrawalBalance": "0x3b9aca00",
        "codeAddress": "0x0000000000000000000000000000000000001002",
        "code": "0x6001600055",
        "storageAddress": "0x0000000000000000000000000000000000001002",
        "storageKey": "0x0000000000000000000000000000000000000000000000000000000000000000",
        "storageValue": "0x000000000000000000000000000000000000000000000000000000000000002a",
        "receiptType": "0x2",
        "receiptStatus": "0x1"
      }
    },
    {
      "name": "shanghai-contract-creation-with-withdrawal",
      "network": "Shanghai",
      "chainId": "0x1",
      "config": {
        "berlinBlock": "0x0",
        "londonBlock": "0x0",
        "shanghaiTime": "0x0"
      },
      "parent": {
        "number": "0x29",
        "gasLimit": "0x186a0",
        "gasUsed": "0xc350",
        "timestamp": "0x62",
        "baseFeePerGas": "0x64",
        "feeRecipient": "0x0000000000000000000000000000000000000001",
        "accounts": [
          {
            "address": "0x7e5f4552091a69125d5dfcb7b8c2659029395bdf",
            "nonce": "0x0",
            "balance": "0x3b9aca00"
          },
          {
            "address": "0x0000000000000000000000000000000000001002",
            "nonce": "0x0",
            "balance": "0x5",
            "code": "0x6001600055",
            "storage": {
              "0x0000000000000000000000000000000000000000000000000000000000000000": "0x2a"
            }
          }
        ]
      },
      "payload": {
        "number": "0x2a",
        "gasLimit": "0x186a0",
        "timestamp": "0x63",
        "baseFeePerGas": "0x64",
        "transactions": [
          "0xf85680648301388080078a600060005360016000f325a079be667ef9dcbbac55a06295ce870b07029bfcdb2dce28d959f2815b16f81798a03ce2d734854fceb1ecbdf0b4aae095e88c569480682ef5c1a7c8e598170ff89e"
        ],
        "withdrawals": [
          {
            "index": "0x0",
            "validatorIndex": "0x1",
            "address": "0x0000000000000000000000000000000000000002",
            "amount": "0x1"
          }
        ]
      },
      "expect": {
        "status": "VALID",
        "sender": "0x7e5f4552091a69125d5dfcb7b8c2659029395bdf",
        "senderNonce": "0x1",
        "senderBalance": "0x3b496479",
        "contractAddress": "0xf2e246bb76df876cef8b38ae84130f4f55de395b",
        "contractBalance": "0x7",
        "withdrawalRecipient": "0x0000000000000000000000000000000000000002",
        "withdrawalBalance": "0x3b9aca00",
        "codeAddress": "0x0000000000000000000000000000000000001002",
        "code": "0x6001600055",
        "storageAddress": "0x0000000000000000000000000000000000001002",
        "storageKey": "0x0000000000000000000000000000000000000000000000000000000000000000",
        "storageValue": "0x000000000000000000000000000000000000000000000000000000000000002a",
        "receiptType": "0x0",
        "receiptStatus": "0x1"
      }
    },
    {
      "name": "shanghai-internal-create2-with-withdrawal",
      "network": "Shanghai",
      "chainId": "0x1",
      "config": {
        "berlinBlock": "0x0",
        "londonBlock": "0x0",
        "shanghaiTime": "0x0"
      },
      "parent": {
        "number": "0x29",
        "gasLimit": "0x30d40",
        "gasUsed": "0x186a0",
        "timestamp": "0x62",
        "baseFeePerGas": "0x64",
        "feeRecipient": "0x0000000000000000000000000000000000000001",
        "accounts": [
          {
            "address": "0x7e5f4552091a69125d5dfcb7b8c2659029395bdf",
            "nonce": "0x0",
            "balance": "0x3b9aca00"
          },
          {
            "address": "0x00000000000000000000000000000000000000ce",
            "nonce": "0x0",
            "balance": "0x0",
            "code": "0x600a600e5f396005600a5f5ff500600060005360016000f3"
          }
        ]
      },
      "payload": {
        "number": "0x2a",
        "gasLimit": "0x30d40",
        "timestamp": "0x63",
        "baseFeePerGas": "0x64",
        "transactions": [
          "0xf86080648302bf209400000000000000000000000000000000000000ce808026a079be667ef9dcbbac55a06295ce870b07029bfcdb2dce28d959f2815b16f81798a07eaf1548a574d362a9ebb722366e6bf9ddc175a44f7476bf0dc64b7bb282193e"
        ],
        "withdrawals": [
          {
            "index": "0x0",
            "validatorIndex": "0x1",
            "address": "0x0000000000000000000000000000000000000002",
            "amount": "0x1"
          }
        ]
      },
      "expect": {
        "status": "VALID",
        "sender": "0x7e5f4552091a69125d5dfcb7b8c2659029395bdf",
        "senderNonce": "0x1",
        "senderBalance": "0x3b49880c",
        "recipient": "0x00000000000000000000000000000000000000ce",
        "recipientBalance": "0x0",
        "withdrawalRecipient": "0x0000000000000000000000000000000000000002",
        "withdrawalBalance": "0x3b9aca00",
        "codeAddress": "0x170c3fca0f3950db07c92bdffb78f1ca42bb7671",
        "code": "0x00",
        "storageAddress": "0x170c3fca0f3950db07c92bdffb78f1ca42bb7671",
        "storageKey": "0x0000000000000000000000000000000000000000000000000000000000000000",
        "storageValue": "0x0000000000000000000000000000000000000000000000000000000000000000",
        "receiptType": "0x0",
        "receiptStatus": "0x1"
      }
    }
  ]
}
