{
  "format": "ethereum-lisp/engine-newpayload-fixture-v1",
  "source": "Handwritten Shanghai engine_newPayloadV2 smoke case shaped for execution-spec-tests-style ingestion.",
  "executionSpecTests": {
    "release": "v5.4.0",
    "tagTarget": "88e9fb8",
    "archive": "fixtures_stable.tar.gz",
    "status": "seed Phase A engine_newPayloadV2 smoke fixture shaped for pinned fixture ingestion; extend with transcribed pinned blockchain cases"
  },
  "referenceClients": {
    "geth": "8a0223e",
    "nethermind": "1c72a72",
    "reth": null
  },
  "cases": [
    {
      "name": "shanghai-one-transfer-with-withdrawal",
      "network": "Shanghai",
      "chainId": "0x1",
      "config": {
        "londonBlock": "0x0",
        "shanghaiTime": "0x0"
      },
      "parent": {
        "number": "0x29",
        "gasLimit": "0xc350",
        "gasUsed": "0x61a8",
        "timestamp": "0x62",
        "baseFeePerGas": "0x64",
        "feeRecipient": "0x0000000000000000000000000000000000000001",
        "accounts": [
          {
            "address": "0x9d8a62f656a8d1615c1294fd71e9cfb3e4855a4f",
            "nonce": "0x9",
            "balance": "0x1bc16d674ec80000"
          }
        ]
      },
      "payload": {
        "number": "0x2a",
        "gasLimit": "0xc350",
        "timestamp": "0x63",
        "baseFeePerGas": "0x64",
        "transactions": [
          "0xf86c098504a817c800825208943535353535353535353535353535353535353535880de0b6b3a76400008025a028ef61340bd939bc2195fe537567866003e1a15d3c71ff63e1590620aa636276a067cbe9d8997f761aecb703304b3800ccf555c9f3dc64214b297fb1966a3b6d83"
        ],
        "withdrawals": [
          {
            "index": "0x0",
            "validatorIndex": "0x1",
            "address": "0x0000000000000000000000000000000000000002",
            "amount": "0x1"
          }
        ]
      },
      "expect": {
        "status": "VALID",
        "sender": "0x9d8a62f656a8d1615c1294fd71e9cfb3e4855a4f",
        "senderNonce": "0xa",
        "senderBalance": "0xddf38b6c895c000",
        "recipient": "0x3535353535353535353535353535353535353535",
        "recipientBalance": "0xde0b6b3a7640000",
        "withdrawalRecipient": "0x0000000000000000000000000000000000000002",
        "withdrawalBalance": "0x3b9aca00",
        "receiptType": "0x0",
        "receiptStatus": "0x1"
      }
    }
  ]
}
