{
  "format": "ethereum-lisp/transaction-envelope-fixtures-v1",
  "source": "in-repo vectors shaped for ethereum/execution-spec-tests v5.4.0 ingestion",
  "executionSpecTests": {
    "release": "v5.4.0",
    "tagTarget": "88e9fb8",
    "archive": "fixtures_stable.tar.gz",
    "status": "seed vectors shaped for pinned fixture ingestion; replace with transcribed pinned transaction tests"
  },
  "referenceClients": {
    "geth": "8a0223e",
    "nethermind": "1c72a72",
    "reth": null
  },
  "vectors": [
    {
      "name": "legacy-eip155",
      "type": "legacy",
      "chainId": 1,
      "txbytes": "0xf86c098504a817c800825208943535353535353535353535353535353535353535880de0b6b3a76400008025a028ef61340bd939bc2195fe537567866003e1a15d3c71ff63e1590620aa636276a067cbe9d8997f761aecb703304b3800ccf555c9f3dc64214b297fb1966a3b6d83",
      "hash": "0x33469b22e9f636356c4160a87eb19df52b7412e8eac32a4a55ffe88ea8350788",
      "sender": "0x9d8a62f656a8d1615c1294fd71e9cfb3e4855a4f",
      "signature": {
        "v": "0x25",
        "yParity": "0x0",
        "r": "0x28ef61340bd939bc2195fe537567866003e1a15d3c71ff63e1590620aa636276",
        "s": "0x67cbe9d8997f761aecb703304b3800ccf555c9f3dc64214b297fb1966a3b6d83"
      },
      "decoded": {
        "nonce": "0x9",
        "gasLimit": "0x5208",
        "to": "0x3535353535353535353535353535353535353535",
        "value": "0xde0b6b3a7640000",
        "input": "0x",
        "gasPrice": "0x4a817c800"
      },
      "result": {
        "Frontier": {
          "hash": "0x33469b22e9f636356c4160a87eb19df52b7412e8eac32a4a55ffe88ea8350788",
          "sender": "0x9d8a62f656a8d1615c1294fd71e9cfb3e4855a4f",
          "intrinsicGas": "0x5208"
        },
        "Homestead": {
          "hash": "0x33469b22e9f636356c4160a87eb19df52b7412e8eac32a4a55ffe88ea8350788",
          "sender": "0x9d8a62f656a8d1615c1294fd71e9cfb3e4855a4f",
          "intrinsicGas": "0x5208"
        },
        "EIP150": {
          "hash": "0x33469b22e9f636356c4160a87eb19df52b7412e8eac32a4a55ffe88ea8350788",
          "sender": "0x9d8a62f656a8d1615c1294fd71e9cfb3e4855a4f",
          "intrinsicGas": "0x5208"
        },
        "EIP158": {
          "hash": "0x33469b22e9f636356c4160a87eb19df52b7412e8eac32a4a55ffe88ea8350788",
          "sender": "0x9d8a62f656a8d1615c1294fd71e9cfb3e4855a4f",
          "intrinsicGas": "0x5208"
        },
        "Byzantium": {
          "hash": "0x33469b22e9f636356c4160a87eb19df52b7412e8eac32a4a55ffe88ea8350788",
          "sender": "0x9d8a62f656a8d1615c1294fd71e9cfb3e4855a4f",
          "intrinsicGas": "0x5208"
        },
        "Constantinople": {
          "hash": "0x33469b22e9f636356c4160a87eb19df52b7412e8eac32a4a55ffe88ea8350788",
          "sender": "0x9d8a62f656a8d1615c1294fd71e9cfb3e4855a4f",
          "intrinsicGas": "0x5208"
        },
        "Istanbul": {
          "hash": "0x33469b22e9f636356c4160a87eb19df52b7412e8eac32a4a55ffe88ea8350788",
          "sender": "0x9d8a62f656a8d1615c1294fd71e9cfb3e4855a4f",
          "intrinsicGas": "0x5208"
        },
        "Berlin": {
          "hash": "0x33469b22e9f636356c4160a87eb19df52b7412e8eac32a4a55ffe88ea8350788",
          "sender": "0x9d8a62f656a8d1615c1294fd71e9cfb3e4855a4f",
          "intrinsicGas": "0x5208"
        },
        "London": {
          "hash": "0x33469b22e9f636356c4160a87eb19df52b7412e8eac32a4a55ffe88ea8350788",
          "sender": "0x9d8a62f656a8d1615c1294fd71e9cfb3e4855a4f",
          "intrinsicGas": "0x5208"
        },
        "Paris": {
          "hash": "0x33469b22e9f636356c4160a87eb19df52b7412e8eac32a4a55ffe88ea8350788",
          "sender": "0x9d8a62f656a8d1615c1294fd71e9cfb3e4855a4f",
          "intrinsicGas": "0x5208"
        },
        "Shanghai": {
          "hash": "0x33469b22e9f636356c4160a87eb19df52b7412e8eac32a4a55ffe88ea8350788",
          "sender": "0x9d8a62f656a8d1615c1294fd71e9cfb3e4855a4f",
          "intrinsicGas": "0x5208"
        },
        "Cancun": {
          "hash": "0x33469b22e9f636356c4160a87eb19df52b7412e8eac32a4a55ffe88ea8350788",
          "sender": "0x9d8a62f656a8d1615c1294fd71e9cfb3e4855a4f",
          "intrinsicGas": "0x5208"
        },
        "Prague": {
          "hash": "0x33469b22e9f636356c4160a87eb19df52b7412e8eac32a4a55ffe88ea8350788",
          "sender": "0x9d8a62f656a8d1615c1294fd71e9cfb3e4855a4f",
          "intrinsicGas": "0x5208"
        }
      }
    },
    {
      "name": "legacy-contract-creation",
      "type": "legacy",
      "chainId": 1,
      "txbytes": "0xf8550a84b2d05e00830186a080808560006000f326a079be667ef9dcbbac55a06295ce870b07029bfcdb2dce28d959f2815b16f81798a00761c24ce4afcc327e43b898785f9721e36233622bfa7c77109035ed9daafc7e",
      "hash": "0xc57eccc738c7f4b24a30e3f5181441316c4f599a46ab64d0f07f188243692758",
      "sender": "0x7e5f4552091a69125d5dfcb7b8c2659029395bdf",
      "signature": {
        "v": "0x26",
        "yParity": "0x1",
        "r": "0x79be667ef9dcbbac55a06295ce870b07029bfcdb2dce28d959f2815b16f81798",
        "s": "0x761c24ce4afcc327e43b898785f9721e36233622bfa7c77109035ed9daafc7e"
      },
      "decoded": {
        "nonce": "0xa",
        "gasLimit": "0x186a0",
        "to": null,
        "value": "0x0",
        "input": "0x60006000f3",
        "gasPrice": "0xb2d05e00"
      },
      "result": {
        "Frontier": {
          "hash": "0xc57eccc738c7f4b24a30e3f5181441316c4f599a46ab64d0f07f188243692758",
          "sender": "0x7e5f4552091a69125d5dfcb7b8c2659029395bdf",
          "intrinsicGas": "0xcf42"
        },
        "Homestead": {
          "hash": "0xc57eccc738c7f4b24a30e3f5181441316c4f599a46ab64d0f07f188243692758",
          "sender": "0x7e5f4552091a69125d5dfcb7b8c2659029395bdf",
          "intrinsicGas": "0xcf42"
        },
        "EIP150": {
          "hash": "0xc57eccc738c7f4b24a30e3f5181441316c4f599a46ab64d0f07f188243692758",
          "sender": "0x7e5f4552091a69125d5dfcb7b8c2659029395bdf",
          "intrinsicGas": "0xcf42"
        },
        "EIP158": {
          "hash": "0xc57eccc738c7f4b24a30e3f5181441316c4f599a46ab64d0f07f188243692758",
          "sender": "0x7e5f4552091a69125d5dfcb7b8c2659029395bdf",
          "intrinsicGas": "0xcf42"
        },
        "Byzantium": {
          "hash": "0xc57eccc738c7f4b24a30e3f5181441316c4f599a46ab64d0f07f188243692758",
          "sender": "0x7e5f4552091a69125d5dfcb7b8c2659029395bdf",
          "intrinsicGas": "0xcf42"
        },
        "Constantinople": {
          "hash": "0xc57eccc738c7f4b24a30e3f5181441316c4f599a46ab64d0f07f188243692758",
          "sender": "0x7e5f4552091a69125d5dfcb7b8c2659029395bdf",
          "intrinsicGas": "0xcf42"
        },
        "Istanbul": {
          "hash": "0xc57eccc738c7f4b24a30e3f5181441316c4f599a46ab64d0f07f188243692758",
          "sender": "0x7e5f4552091a69125d5dfcb7b8c2659029395bdf",
          "intrinsicGas": "0xcf42"
        },
        "Berlin": {
          "hash": "0xc57eccc738c7f4b24a30e3f5181441316c4f599a46ab64d0f07f188243692758",
          "sender": "0x7e5f4552091a69125d5dfcb7b8c2659029395bdf",
          "intrinsicGas": "0xcf42"
        },
        "London": {
          "hash": "0xc57eccc738c7f4b24a30e3f5181441316c4f599a46ab64d0f07f188243692758",
          "sender": "0x7e5f4552091a69125d5dfcb7b8c2659029395bdf",
          "intrinsicGas": "0xcf42"
        },
        "Paris": {
          "hash": "0xc57eccc738c7f4b24a30e3f5181441316c4f599a46ab64d0f07f188243692758",
          "sender": "0x7e5f4552091a69125d5dfcb7b8c2659029395bdf",
          "intrinsicGas": "0xcf42"
        },
        "Shanghai": {
          "hash": "0xc57eccc738c7f4b24a30e3f5181441316c4f599a46ab64d0f07f188243692758",
          "sender": "0x7e5f4552091a69125d5dfcb7b8c2659029395bdf",
          "intrinsicGas": "0xcf42"
        },
        "Cancun": {
          "hash": "0xc57eccc738c7f4b24a30e3f5181441316c4f599a46ab64d0f07f188243692758",
          "sender": "0x7e5f4552091a69125d5dfcb7b8c2659029395bdf",
          "intrinsicGas": "0xcf42"
        },
        "Prague": {
          "hash": "0xc57eccc738c7f4b24a30e3f5181441316c4f599a46ab64d0f07f188243692758",
          "sender": "0x7e5f4552091a69125d5dfcb7b8c2659029395bdf",
          "intrinsicGas": "0xcf42"
        }
      }
    },
    {
      "name": "eip2930-access-list",
      "type": "access-list",
      "chainId": 1,
      "txbytes": "0x01f8bd01040182c35094b94f5374fce5edbc8e2a8697c15331677e6ebf0b0a80f85bf859940000000000000000000000000000000000000101f842a00000000000000000000000000000000000000000000000000000000000000001a0000000000000000000000000000000000000000000000000000000000000000280a079be667ef9dcbbac55a06295ce870b07029bfcdb2dce28d959f2815b16f81798a01ed995b55ae531ccce7f7355b76d169c08886a437e3932f6f0e79c9dcc297aed",
      "hash": "0x995903c5f6a92f1ce6dcc4b9a1d24ff319ba4af51cf5ee3620547f7129072f38",
      "sender": "0x7e5f4552091a69125d5dfcb7b8c2659029395bdf",
      "signature": {
        "yParity": "0x0",
        "r": "0x79be667ef9dcbbac55a06295ce870b07029bfcdb2dce28d959f2815b16f81798",
        "s": "0x1ed995b55ae531ccce7f7355b76d169c08886a437e3932f6f0e79c9dcc297aed"
      },
      "decoded": {
        "nonce": "0x4",
        "gasLimit": "0xc350",
        "to": "0xb94f5374fce5edbc8e2a8697c15331677e6ebf0b",
        "value": "0xa",
        "input": "0x",
        "gasPrice": "0x1"
      },
      "accessList": [
        {
          "address": "0x0000000000000000000000000000000000000101",
          "storageKeys": [
            "0x0000000000000000000000000000000000000000000000000000000000000001",
            "0x0000000000000000000000000000000000000000000000000000000000000002"
          ]
        }
      ],
      "result": {
        "Frontier": {
          "exception": "TransactionException.TYPE_1_TX_PRE_FORK"
        },
        "Homestead": {
          "exception": "TransactionException.TYPE_1_TX_PRE_FORK"
        },
        "EIP150": {
          "exception": "TransactionException.TYPE_1_TX_PRE_FORK"
        },
        "EIP158": {
          "exception": "TransactionException.TYPE_1_TX_PRE_FORK"
        },
        "Byzantium": {
          "exception": "TransactionException.TYPE_1_TX_PRE_FORK"
        },
        "Constantinople": {
          "exception": "TransactionException.TYPE_1_TX_PRE_FORK"
        },
        "Istanbul": {
          "exception": "TransactionException.TYPE_1_TX_PRE_FORK"
        },
        "Berlin": {
          "hash": "0x995903c5f6a92f1ce6dcc4b9a1d24ff319ba4af51cf5ee3620547f7129072f38",
          "sender": "0x7e5f4552091a69125d5dfcb7b8c2659029395bdf",
          "intrinsicGas": "0x6a40"
        },
        "London": {
          "hash": "0x995903c5f6a92f1ce6dcc4b9a1d24ff319ba4af51cf5ee3620547f7129072f38",
          "sender": "0x7e5f4552091a69125d5dfcb7b8c2659029395bdf",
          "intrinsicGas": "0x6a40"
        },
        "Paris": {
          "hash": "0x995903c5f6a92f1ce6dcc4b9a1d24ff319ba4af51cf5ee3620547f7129072f38",
          "sender": "0x7e5f4552091a69125d5dfcb7b8c2659029395bdf",
          "intrinsicGas": "0x6a40"
        },
        "Shanghai": {
          "hash": "0x995903c5f6a92f1ce6dcc4b9a1d24ff319ba4af51cf5ee3620547f7129072f38",
          "sender": "0x7e5f4552091a69125d5dfcb7b8c2659029395bdf",
          "intrinsicGas": "0x6a40"
        },
        "Cancun": {
          "hash": "0x995903c5f6a92f1ce6dcc4b9a1d24ff319ba4af51cf5ee3620547f7129072f38",
          "sender": "0x7e5f4552091a69125d5dfcb7b8c2659029395bdf",
          "intrinsicGas": "0x6a40"
        },
        "Prague": {
          "hash": "0x995903c5f6a92f1ce6dcc4b9a1d24ff319ba4af51cf5ee3620547f7129072f38",
          "sender": "0x7e5f4552091a69125d5dfcb7b8c2659029395bdf",
          "intrinsicGas": "0x6a40"
        }
      }
    },
    {
      "name": "eip1559-dynamic-fee",
      "type": "dynamic-fee",
      "chainId": 1,
      "txbytes": "0x02f864010180820fa08284d09411111111111111111111111111111111111111118080c001a0b7dfab36232379bb3d1497a4f91c1966b1f932eae3ade107bf5d723b9cb474e0a06261c359a10f2132f126d250485b90cf20f30340801244a08ef6142ab33d1904",
      "hash": "0xa98a24882ea90916c6a86da650fbc6b14238e46f0af04a131ce92be897507476",
      "sender": "0xd02d72e067e77158444ef2020ff2d325f929b363",
      "signature": {
        "yParity": "0x1",
        "r": "0xb7dfab36232379bb3d1497a4f91c1966b1f932eae3ade107bf5d723b9cb474e0",
        "s": "0x6261c359a10f2132f126d250485b90cf20f30340801244a08ef6142ab33d1904"
      },
      "decoded": {
        "nonce": "0x1",
        "gasLimit": "0x84d0",
        "to": "0x1111111111111111111111111111111111111111",
        "value": "0x0",
        "input": "0x",
        "maxPriorityFeePerGas": "0x0",
        "maxFeePerGas": "0xfa0"
      },
      "result": {
        "Frontier": {
          "exception": "TransactionException.TYPE_2_TX_PRE_FORK"
        },
        "Homestead": {
          "exception": "TransactionException.TYPE_2_TX_PRE_FORK"
        },
        "EIP150": {
          "exception": "TransactionException.TYPE_2_TX_PRE_FORK"
        },
        "EIP158": {
          "exception": "TransactionException.TYPE_2_TX_PRE_FORK"
        },
        "Byzantium": {
          "exception": "TransactionException.TYPE_2_TX_PRE_FORK"
        },
        "Constantinople": {
          "exception": "TransactionException.TYPE_2_TX_PRE_FORK"
        },
        "Istanbul": {
          "exception": "TransactionException.TYPE_2_TX_PRE_FORK"
        },
        "Berlin": {
          "exception": "TransactionException.TYPE_2_TX_PRE_FORK"
        },
        "London": {
          "hash": "0xa98a24882ea90916c6a86da650fbc6b14238e46f0af04a131ce92be897507476",
          "sender": "0xd02d72e067e77158444ef2020ff2d325f929b363",
          "intrinsicGas": "0x5208"
        },
        "Paris": {
          "hash": "0xa98a24882ea90916c6a86da650fbc6b14238e46f0af04a131ce92be897507476",
          "sender": "0xd02d72e067e77158444ef2020ff2d325f929b363",
          "intrinsicGas": "0x5208"
        },
        "Shanghai": {
          "hash": "0xa98a24882ea90916c6a86da650fbc6b14238e46f0af04a131ce92be897507476",
          "sender": "0xd02d72e067e77158444ef2020ff2d325f929b363",
          "intrinsicGas": "0x5208"
        },
        "Cancun": {
          "hash": "0xa98a24882ea90916c6a86da650fbc6b14238e46f0af04a131ce92be897507476",
          "sender": "0xd02d72e067e77158444ef2020ff2d325f929b363",
          "intrinsicGas": "0x5208"
        },
        "Prague": {
          "hash": "0xa98a24882ea90916c6a86da650fbc6b14238e46f0af04a131ce92be897507476",
          "sender": "0xd02d72e067e77158444ef2020ff2d325f929b363",
          "intrinsicGas": "0x5208"
        }
      }
    },
    {
      "name": "eip4844-blob",
      "type": "blob",
      "chainId": 1337,
      "txbytes": "0x03f8b1820539806485174876e800825208940c2c51a0990aee1d73c1228de1586883415575088080c083020000f842a00100c9fbdf97f747e85847b4f3fff408f89c26842f77c882858bf2c89923849aa00138e3896f3c27f2389147507f8bcec52028b0efca6ee842ed83c9158873943880a0dbac3f97a532c9b00e6239b29036245a5bfbb96940b9d848634661abee98b945a03eec8525f261c2e79798f7b45a5d6ccaefa24576d53ba5023e919b86841c0675",
      "hash": "0xc4ad67e7f322994fdabb7a8500e7164c6d28179336eb561d9dae253bb15e3293",
      "sender": "0x0c2c51a0990aee1d73c1228de158688341557508",
      "signature": {
        "yParity": "0x0",
        "r": "0xdbac3f97a532c9b00e6239b29036245a5bfbb96940b9d848634661abee98b945",
        "s": "0x3eec8525f261c2e79798f7b45a5d6ccaefa24576d53ba5023e919b86841c0675"
      },
      "decoded": {
        "nonce": "0x0",
        "gasLimit": "0x5208",
        "to": "0x0c2c51a0990aee1d73c1228de158688341557508",
        "value": "0x0",
        "input": "0x",
        "maxPriorityFeePerGas": "0x64",
        "maxFeePerGas": "0x174876e800",
        "maxFeePerBlobGas": "0x20000",
        "blobVersionedHashes": [
          "0x0100c9fbdf97f747e85847b4f3fff408f89c26842f77c882858bf2c89923849a",
          "0x0138e3896f3c27f2389147507f8bcec52028b0efca6ee842ed83c91588739438"
        ]
      },
      "result": {
        "Frontier": {
          "exception": "TransactionException.TYPE_3_TX_PRE_FORK"
        },
        "Homestead": {
          "exception": "TransactionException.TYPE_3_TX_PRE_FORK"
        },
        "EIP150": {
          "exception": "TransactionException.TYPE_3_TX_PRE_FORK"
        },
        "EIP158": {
          "exception": "TransactionException.TYPE_3_TX_PRE_FORK"
        },
        "Byzantium": {
          "exception": "TransactionException.TYPE_3_TX_PRE_FORK"
        },
        "Constantinople": {
          "exception": "TransactionException.TYPE_3_TX_PRE_FORK"
        },
        "Istanbul": {
          "exception": "TransactionException.TYPE_3_TX_PRE_FORK"
        },
        "Berlin": {
          "exception": "TransactionException.TYPE_3_TX_PRE_FORK"
        },
        "London": {
          "exception": "TransactionException.TYPE_3_TX_PRE_FORK"
        },
        "Paris": {
          "exception": "TransactionException.TYPE_3_TX_PRE_FORK"
        },
        "Shanghai": {
          "exception": "TransactionException.TYPE_3_TX_PRE_FORK"
        },
        "Cancun": {
          "hash": "0xc4ad67e7f322994fdabb7a8500e7164c6d28179336eb561d9dae253bb15e3293",
          "sender": "0x0c2c51a0990aee1d73c1228de158688341557508",
          "intrinsicGas": "0x5208"
        },
        "Prague": {
          "hash": "0xc4ad67e7f322994fdabb7a8500e7164c6d28179336eb561d9dae253bb15e3293",
          "sender": "0x0c2c51a0990aee1d73c1228de158688341557508",
          "intrinsicGas": "0x5208"
        }
      }
    },
    {
      "name": "eip7702-set-code",
      "type": "set-code",
      "chainId": 1337,
      "txbytes": "0x04f90126820539800285012a05f2008307a1209471562b71999873db5b286df957af199ec94617f78080c0f8baf85c82053994000000000000000000000000000000000000aaaa0101a07ed17af7d2d2b9ba7d797a202125bf505b9a0f962a67b3b61b56783d8faf7461a001b73b6e586edc706dce6c074eaec28692fa6359fb3446a2442f36777e1c0669f85a8094000000000000000000000000000000000000bbbb8001a05011890f198f0356a887b0779bde5afa1ed04e6acb1e3f37f8f18c7b6f521b98a056c3fa3456b103f3ef4a0acb4b647b9cab9ec4bc68fbcdf1e10b49fb2bcbcf6101a0167b0ecfc343a497095c22ee4270d3cc3b971cc3599fc73bbff727e0d2ed432da01c003c72306807492bf1150e39b2f79da23b49a4e83eb6e9209ae30d3572368f",
      "hash": "0x3caafc2d5648c6f1153b76b2c20fd3d12de17a546691bd2d844c88f7b7f18313",
      "sender": "0x71562b71999873db5b286df957af199ec94617f7",
      "signature": {
        "yParity": "0x1",
        "r": "0x167b0ecfc343a497095c22ee4270d3cc3b971cc3599fc73bbff727e0d2ed432d",
        "s": "0x1c003c72306807492bf1150e39b2f79da23b49a4e83eb6e9209ae30d3572368f"
      },
      "decoded": {
        "nonce": "0x0",
        "gasLimit": "0x7a120",
        "to": "0x71562b71999873db5b286df957af199ec94617f7",
        "value": "0x0",
        "input": "0x",
        "maxPriorityFeePerGas": "0x2",
        "maxFeePerGas": "0x12a05f200",
        "authorizationList": [
          {
            "chainId": "0x539",
            "address": "0x000000000000000000000000000000000000aaaa",
            "nonce": "0x1",
            "yParity": "0x1",
            "r": "0x7ed17af7d2d2b9ba7d797a202125bf505b9a0f962a67b3b61b56783d8faf7461",
            "s": "0x1b73b6e586edc706dce6c074eaec28692fa6359fb3446a2442f36777e1c0669"
          },
          {
            "chainId": "0x0",
            "address": "0x000000000000000000000000000000000000bbbb",
            "nonce": "0x0",
            "yParity": "0x1",
            "r": "0x5011890f198f0356a887b0779bde5afa1ed04e6acb1e3f37f8f18c7b6f521b98",
            "s": "0x56c3fa3456b103f3ef4a0acb4b647b9cab9ec4bc68fbcdf1e10b49fb2bcbcf61"
          }
        ]
      },
      "result": {
        "Frontier": {
          "exception": "TransactionException.TYPE_4_TX_PRE_FORK"
        },
        "Homestead": {
          "exception": "TransactionException.TYPE_4_TX_PRE_FORK"
        },
        "EIP150": {
          "exception": "TransactionException.TYPE_4_TX_PRE_FORK"
        },
        "EIP158": {
          "exception": "TransactionException.TYPE_4_TX_PRE_FORK"
        },
        "Byzantium": {
          "exception": "TransactionException.TYPE_4_TX_PRE_FORK"
        },
        "Constantinople": {
          "exception": "TransactionException.TYPE_4_TX_PRE_FORK"
        },
        "Istanbul": {
          "exception": "TransactionException.TYPE_4_TX_PRE_FORK"
        },
        "Berlin": {
          "exception": "TransactionException.TYPE_4_TX_PRE_FORK"
        },
        "London": {
          "exception": "TransactionException.TYPE_4_TX_PRE_FORK"
        },
        "Paris": {
          "exception": "TransactionException.TYPE_4_TX_PRE_FORK"
        },
        "Shanghai": {
          "exception": "TransactionException.TYPE_4_TX_PRE_FORK"
        },
        "Cancun": {
          "exception": "TransactionException.TYPE_4_TX_PRE_FORK"
        },
        "Prague": {
          "hash": "0x3caafc2d5648c6f1153b76b2c20fd3d12de17a546691bd2d844c88f7b7f18313",
          "sender": "0x71562b71999873db5b286df957af199ec94617f7",
          "intrinsicGas": "0x11558"
        }
      }
    }
  ]
}
